:030000000219D50D
:1019D500787FE4F6D8FD750804750900758109025C
:0219E5001A22C4
:101E66009001DEEBF0A3EAF0A3E9F09001E4E0F9DB
:101E7600A3E0FF9001DEE0FBA3E0FAA3E0C98FF048
:101E860012056F9001E1E0FBA3E0FAA3E0F9C003BD
:101E9600C002C0019001DEE0FBA3E0FAA3E0F990E6
:101EA60000021206EB9001DEE0FBA3E0FAA3E0F9E4
:101EB600900005E4F5F012058E900007E4F5F012A7
:0B1EC600058E900009E4F5F002058E87
:1013410090FFFF12074AEDF090FFFD12074AEBF004
:10135100A3EAF0A3E9F0850883850982E0FBA3E015
:10136100FAA3E0F99000051204EAFFAEF01204BFFF
:10137100FDC3EF9DEE95F040057F00021432900011
:101381000312076EE0FF850883850982E0FBA3E075
:10139100FAA3E0F99000021206BBC003C002C0012B
:1013A100850883850982E0FBA3E0FAA3E0F99000B8
:1013B100091204EAD001D002D003F58285F083EF4F
:1013C100120471850883850982E0FBA3E0FAA3E09A
:1013D100F9900009E475F001120522E92409F9E404
:1013E1003AFAC003C002C0011204BFFFAEF0850883
:1013F10083850982E0FBA3E0FAA3E0F91204BF248C
:10140100FFFDE5F034FF5EFEEF5DFFD001D002D0BD
:1014110003EE8FF012056F850883850982E0FBA337
:10142100E0FAA3E0F9900005E475F0011205227FCE
:071431000190000402074ACC
:1015280090FFFD12074AEBF0A3EAF0A3E9F090FF61
:04153800FF12074A4D
:10153C00850883850982A3E0FBA3E0FAA3E0F99078
:10154C0000051204EA45F07004FF02160F850883AB
:10155C00850982A3E0FBA3E0FAA3E0F99000021254
:10156C0006BBC003C002C001850883850982A3E0C5
:10157C00FBA3E0FAA3E0F99000071204EAD001D033
:10158C0002D003F58285F083120432850883850925
:10159C0082F0A3E0FBA3E0FAA3E0F9900007E47566
:1015AC00F001120522E92407F9E43AFAC003C0025B
:1015BC00C0011204BFFFAEF0850883850982A3E049
:1015CC00FBA3E0FAA3E0F91204BF24FFFDE5F0341D
:1015DC00FF5EFEEF5DFFD001D002D003EE8FF01264
:1015EC00056F850883850982A3E0FBA3E0FAA3E0DD
:1015FC00F990000574FFF5F0120522850883850922
:03160C0082E0FF7A
:06160F0090000402074AEE
:0B0AC2009001E2EBF0A3EAF0A3E9F0E2
:100ACD009000051204EAFFD39001E9E09F9001E840
:100ADD00E095F040037F00229001E2E0FBA3E0FAF5
:100AED00A3E0F99000071204EAFFAEF01204BFC3B1
:100AFD009FFFE5F09EFE9001EAF0A3EFF0C3900199
:100B0D00E9E09F9001E8E09E5003020BEB9001E2BB
:100B1D00A3A3E09000021206BBC003C002C0019067
:100B2D0001E2E0FBA3E0FAA3E0F99000071204EA6A
:100B3D00D001D002D00329F9EA35F0FA9001ECEB9F
:100B4D00F0A3EAF0A3E9F0E4A3F0A3F09001EAE04A
:100B5D00FEA3E0FF9001EFE0FCA3E0FDC39FEC9E40
:100B6D00503C9001ECE0FBA3E0FAA3E0F98D828C00
:100B7D0083120432FF9001E5E0FBA3E0FAA3E0F954
:100B8D00EF12045F9001E6E475F0011204939001F9
:100B9D00F0E004F070069001EFE004F080AE9001FB
:100BAD00E2E0FBA3E0FAA3E0F9900007E4F5F01210
:100BBD00058EE92405F9E43AFA1204BFFF9001EA23
:100BCD00E0FCA3E0FDC3EF9DFFE5F09C8FF0120567
:100BDD006FC39001E9E09DF09001E8E09CF0900179
:100BED00E2E0FBA3E0FAA3E0F99000021206BBC01D
:100BFD0003C002C0019001E2E0FBA3E0FAA3E0F91B
:100C0D009000071204EAD001D002D00329F9EA3589
:100C1D00F0FA9001ECEBF0A3EAF0A3E9F0E4A3F015
:100C2D00A3F09001E8E0FEA3E0FF9001EFE0FCA34C
:100C3D00E0FDC39FEC9E503C9001ECE0FBA3E0FA7D
:100C4D00A3E0F98D828C83120432FF9001E5E0FB65
:100C5D00A3E0FAA3E0F9EF12045F9001E6E475F06A
:100C6D00011204939001F0E004F070069001EFE0A2
:100C7D0004F080AE9001E8E0FEA3E0FF9001E2E019
:100C8D00FBA3E0FAA3E0F9900007EE8FF012052226
:100C9D00E92405F9E43AFA1204BFC39FFFE5F09E7B
:070CAD008FF012056F7F01BB
:010CB400221D
:0B0CB5009001E3EBF0A3EAF0A3E9F0EC
:100CC0009000051204EAFFAEF01204BFC39FFFE5D7
:100CD000F09EFED39001EAE09F9001E9E09E400380
:100CE0007F00229001E3E0FBA3E0FAA3E0F990008B
:100CF000091204EAFFAEF01204BFC39FFFE5F09EA5
:100D0000FE9001EBF0A3EFF0C39001EAE09F9001A9
:100D1000E9E09E5003020DDB9001E3A3A3E0900005
:100D2000021206BBC003C002C0019001E3E0FBA3B6
:100D3000E0FAA3E0F99000091204EAD001D002D051
:100D40000329F9EA35F0FA9001EDEBF0A3EAF0A3FC
:100D5000E9F0E4A3F0A3F09001EBE0FEA3E0FF9044
:100D600001F0E0FCA3E0FDC39FEC9E503C9001E647
:100D7000E0FBA3E0FAA3E0F9120419FF9001EDE013
:100D8000FBA3E0FAA3E0F98D828C83EF120471904B
:100D900001E7E475F0011204939001F1E004F070B2
:100DA000069001F0E004F080AE9001E3E0FBA3E0E8
:100DB000FAA3E0F9900009E4F5F012058E9001EB3A
:100DC000E0FEA3E0FF900005EE8FF0120522C39035
:100DD00001EAE09FF09001E9E09EF09001E3E0FB82
:100DE000A3E0FAA3E0F99000021206BBC003C00220
:100DF000C0019001E3E0FBA3E0FAA3E0F990000951
:100E00001204EAD001D002D00329F9EA35F0FA90B1
:100E100001EDEBF0A3EAF0A3E9F0E4A3F0A3F09076
:100E200001E9E0FEA3E0FF9001F0E0FCA3E0FDC3D8
:100E30009FEC9E503C9001E6E0FBA3E0FAA3E0F9B2
:100E4000120419FF9001EDE0FBA3E0FAA3E0F98D95
:100E5000828C83EF1204719001E7E475F0011204B3
:100E6000939001F1E004F070069001F0E004F0804E
:100E7000AE9001E9E0FEA3E0FF9001E3E0FBA3E018
:100E8000FAA3E0F9900009EE8FF012052290000518
:080E9000EE8FF01205227F0134
:010E98002237
:081DF600410241FF410242FFDE
:02237A00A907B1
:10237C00ED24FD600A24027048AC92AE938004AC4C
:10238C0096AE97E914601414601614601C24037044
:10239C0030EBF4FF5CFCEE5FFE8014EBF45C800B26
:1023AC00EC4BFCEBF45EFE8006EC4BFCEE4BFEEDD6
:1023BC0024FD6009240270098C928E93228C968ED7
:0123CC009779
:0123CD0022ED
:1025DF00EF24FD601C2402702FEB9002416006E097
:1025EF004DFFF08009E0FFEDF4FEEF5EFFF08F90FE
:1025FF0022EB9002426006E04DFFF08009E0FFED14
:09260F00F4FEEF5EFFF08FB02233
:1027DE00EF24FD600F24027016E5905D60037F010B
:1027EE00227F0022E5B05D60037F01227F00227F01
:0227FE000022B7
:10287D00EF24FD600D24027011900241E04DF0F542
:0B288D009022900242E04DF0F5B022D6
:10275000EF24FD60122402701B900241E0FFEDF4B3
:10276000FEEF5EF0F59022900242E0FFEDF4FEEF06
:052770005EF0F5B0224F
:0F1DFE0041023800420236000043023900000063
:03006B000222630B
:10226300C0E0C0F0C083C082C0D075D000C000C041
:1022730001C002C003C004C005C006C007900238F5
:10228300E0F5FF900237E004F07006900236E004B8
:10229300F0900239E0FBA3E0FAA3E0F9EA494B60CE
:1022A30003120744D007D006D005D004D003D002D0
:0F22B300D001D000D0D0D082D083D0F0D0E03294
:1028D20075A15575A1AA53B1FEEF42B175A1FF22B0
:1028C10075A15575A1AAE5B9543F4FF5B975A1FF99
:0128D10022E4
:1028E20075A15575A1AA53B9F8EF42B975A1FF2296
:0D000E0075A15575A1AA43B11075A1FF227F
:1028AF00EF4E600D05A105A105A1EF1F70F21E806F
:0228BF00EF2206
:10289800AD07AC06ED4C600E7FE87E031228AFED65
:0728A8001D70F11C80EE22FF
:0C001E008FFBE4F5FC75FA60ED42FA225D
:0428F20075FA02224F
:080003008FF930FBFDAFF9227B
:101E0D0043021200000043021500000043021800B7
:021E1D000000C3
:03000B0002200EC2
:10200E00C0E0C0F0C083C082C0D075D000C000C098
:10201E0001C002C003C004C005C006C00790020E76
:10202E00E0FEA3E0F58AEEF58C900209E004F07074
:10203E0006900208E004F0900212E0FBA3E0FAA37F
:10204E00E0F9EA494B6003120744D007D006D005E9
:10205E00D004D003D002D001D000D0D0D082D08313
:05206E00D0F0D0E032CB
:03001B000220734D
:10207300C0E0C0F0C083C082C0D075D000C000C033
:1020830001C002C003C004C005C006C0079002100F
:10209300E0FEA3E0F58BEEF58D90020BE004F0700B
:1020A3000690020AE004F0900215E0FBA3E0FAA315
:1020B300E0F9EA494B6003120744D007D006D00584
:1020C300D004D003D002D001D000D0D0D082D083AE
:0520D300D0F0D0E03266
:03002B0002231F8E
:10231F00C0E0C0F0C083C082C0D075D000C000C084
:10232F0001C002C003C004C005C006C00790020D63
:10233F00E004F0700690020CE004F0900218E0FB4D
:10234F00A3E0FAA3E0F9EA494B6003120744C2CFB6
:10235F00D007D006D005D004D003D002D001D000D2
:0B236F00D0D0D082D083D0F0D0E0327C
:101A67009001D8EBF0A3EAF0A3E9F0EF146031148A
:101A770060582402707AC28C5389F043890143C9A4
:101A870090E4900208F0A3F09001D8E0F9A3E0FAFF
:101A9700A3E0900212C9F0A3EAF0A3E9F0D2A922C9
:101AA700C28E53890F43891043C9A0E490020AF0FC
:101AB700A3F09001D8E0F9A3E0FAA3E0900215C9DA
:101AC700F0A3EAF0A3E9F0D2AB22E4F5C853C9F0DA
:101AD70043C9C090020CF0A3F09001D8E0F9A3E04D
:101AE700FAA3E0900218C9F0A3EAF0A3E9F0D2AD97
:011AF70022CC
:10242200EDF4FDECF4FCED2401FDE43CFCEF146062
:102432001A14602A2402703990020EECF0A3EDF017
:10244200F58AECF58CE49002088023900210ECF0FF
:10245200A3EDF0F58BECF58DE490020A80108CCBA5
:102462008DCAAE04AF058ECD8FCCE490020CF0A3E2
:01247200F079
:012473002246
:1026D900EF1460111460182402701DED6003D3809B
:1026E90001C392A922ED6003D38001C392AB22ED0D
:0926F9006003D38001C392AD22FD
:10002E00EF14600A14600A24027008D28C22D28E59
:04003E0022D2CA22DE
:10005600EF14600A14600A24027008C28C22C28E51
:0400660022C2CA22C6
:1024C400EF14601414602A24027035AF8CEFFCAF53
:1024D4008AEFFD90020E800BAF8DEFFCAF8BEFFD0A
:1024E400900210E0FEA3E0FFC3ED9FFDEC9EFC8094
:1024F40013ACCDADCCC3ED95CAFDEC95CBFC8004FB
:08250400E4FEFF22AF05AE0466
:01250C0022AC
:10250D00EDF4FDECF4FCED2401FDE43CFCEF146076
:10251D00161460222402702F8D8AECF58CC28DD298
:10252D008C308DFDC28C228D8BECF58DC28FD28EB1
:10253D00308FFDC28E22AE04AF058ECD8FCCC2CFB3
:07254D00D2CA30CFFDC2CA63
:012554002264
:10267C00AE07EE25E02408F582E43402F583E4F09D
:10268C00A3F012002EEE25E02408F582E43402F5C6
:10269C0083E0FAA3E0C39DEA9C40EAAF0602005631
:0C00460000000001010200000001010D9B
:03005300021D0883
:101D0800C0E0C0F0C083C082C0D075D000C000C0A1
:101D180001C002C003C004C005C006C00730C0151A
:101D2800C2C0ADC1900049E493FB740193FA7402F8
:101D380093F912134130C127C2C190004FE493FBBD
:101D4800740193FA740293F99000051204EA45F0BD
:101D580060071215288FC180069001017401F0D028
:101D680007D006D005D004D003D002D001D000D0CF
:0A1D7800D0D082D083D0F0D0E0324A
:101D8200EC4D4E4F7005C2C4C2EC229001017401A9
:101D9200F075C030AB07AA06A905A8047F407E42B1
:101DA2007D0F7C001205F7EFF404F5C253C6DF90F5
:101DB20001DDE042C69001E17401F0A37401F0A3D9
:101DC2007418F0A3E4F0A37440F07B017A01790265
:101DD200121E669001E17401F0A37401F0A374581D
:101DE200F0A3E4F0A37440F07B017A01790D121E96
:041DF20066D2EC22A7
:10277500EF75F003A42446F582E43400F583E49371
:10278500FB740193FA740293F99000051204EAFFB1
:03279500AEF02281
:1023CE00EF75F003A42446F582E43400F583E4931C
:1023DE00FB740193FA740293F99000021206BBC0CB
:1023EE0003C002C001EF75F003A42446F582E43465
:1023FE0000F583E493FB740193FA740293F9900051
:10240E00071204EAD001D002D003F58285F08312C0
:04241E000432FF2263
:05259B00900243EFF087
:1025A000900243E0FF75F003A42446F582E4340072
:1025B000F583E493FB740193FA740293F990000598
:1025C0001204EA45F060D9EF6004C2EC8002C2ACAC
:0E25D000121528900243E06003D2EC22D2AC38
:0125DE0022DA
:0E1615009001D8EFF0A3EBF0A3EAF0A3E9F008
:10162300A3E0FFA3E0A3CFF0A3EFF0E4A3F0A3F0C4
:101633009001DEE07002A3E070030216EE9001D881
:10164300E075F003A42446F582E43400F583E493C3
:10165300FB740193FA740293F99000051204EAFFF4
:101663009001E0E5F0F0A3EFF09001DEE0FEA3E0EF
:10167300FFD39001E1E09F9001E0E09E4005EEF092
:10168300A3EFF09001D8E06004C2EC8002C2ACC0CA
:1016930002C0019001D9E0F9A3E0FAA3E09001E5CB
:1016A300C9F0A3EAF0A3E9F09001E0E0FFA3E09022
:1016B30001E8CFF0A3EFF0D001D002120AC29001EB
:1016C300D8E06004D2EC8002D2AC9001E0E0FEA34B
:1016D300E0FFC39001DFE09FF09001DEE09EF09019
:0B16E30001DAEE8FF0120493021633C0
:0116EE0022D9
:1018770090021BEFF0A3EDF0A3EBF0A3EAF0A3E9CE
:01188700F070
:10188800A3E0FFA3E0A3CFF0A3EFF0900222E07063
:1018980002A3E0607590021BE0FF75F003A42446E4
:1018A800F582E43400F583E493FB740193FA74023F
:1018B80093F99000051204EA45F060CFEF6004C286
:1018C800EC8002C2AC121528900224EFF090021BA3
:1018D800E06004D2EC8002D2AC90021CE0FF9002DF
:1018E80024E0FE6F6024900223E024FFF09002229F
:1018F800E034FFF090021DE0FBA3E475F001120450
:10190800A9A9F0FAEE12045F8081900222E0FEA3FA
:0F191800E0FFC3900221E09FFF900220E09EFEBF
:01192700229D
:0E16EF00900225EFF0A3EBF0A3EAF0A3E9F0E0
:1016FD00E490022BF0A3F090022AE024FFF0900278
:10170D0029E034FFF0900229E0FEA3E0FFC3900230
:10171D002CE09F90022BE09E5074900225E0FF7507
:10172D00F003A42446F582E43400F583E493FB74BE
:10173D000193FA740293F99000051204EA45F060E2
:10174D00D9EF6004C2EC8002C2AC12152890022DB4
:10175D00EFF0900225E06004D2EC8002D2AC900252
:10176D002DE0FF900226E0FBA3E0FAA3E0F9900242
:10177D002BE475F0011204A985F082F583EF1204B4
:10178D0071EF640D6008EF640A6003021712900296
:10179D0026E0FBA3E0FAA3E0F990022BE0FEA3E024
:0917AD00FFF5828E83E402047151
:10255500EF75F003A4244CF582E43400F583E4938D
:10256500FB740193FA740293F99000051204EAFDD5
:10257500ACF0EF75F003A4244CF582E43400F58348
:10258500E493FB740193FA740293F91204BFC39D9B
:06259500FFE5F09CFE22B0
:10213C009001D8EFF06004C2EC8002C2AC9001D8E0
:10214C00E0FF2400F582E43401F583E0601AEF60CF
:10215C00048DC180028D999001D8E02400F582E4B1
:10216C003401F583E4F0801F9001D8E075F003A4EE
:10217C00244CF582E43400F583E493FB740193FA68
:10218C00740293F91213419001D8E06003D2EC224F
:03219C00D2AC22A0
:0B22C20090023CEBF0A3EAF0A3E9F06F
:1022CD00E4A3F0A3F090023CE0FBA3E0FAA3E0F955
:1022DD00A3E0FCA3E0F5828C83120432601090021F
:1022ED0040E004F070DF90023FE004F080D79002F0
:1022FD003CE0FBA3E0FAA3E0F9A3E0FDA3E090012D
:10230D00DFCDF0A3EDF0120E9990023FE0FEA3E0B9
:01231D00FFC0
:01231E00229C
:100E99009001DCEBF0A3EAF0A3E9F09001DBEFF0BD
:100EA900E49001E1F0A3F0EF6004C2EC8002C2AC6F
:100EB9009001DBE0FF2400F582E43401F583E06072
:100EC90049EF9001DC6014E0FBA3E475F001120422
:100ED900A9A9F0FA120419F5C18012E0FBA3E4757F
:100EE900F0011204A9A9F0FA120419F5999001DB8D
:100EF900E02400F582E43401F583E4F09001E0E0B8
:100F090024FFF09001DFE034FFF09001DBE06004A2
:100F1900D2EC8002D2AC9001DFE07002A3E0700352
:100F290002101D9001DBE0FF75F003A4244CF5824B
:100F3900E43400F583E493FB740193FA740293F9A2
:100F49009000051204EAFDACF0EF75F003A4244CFF
:100F5900F582E43400F583E493FB740193FA740297
:100F690093F91204BFC39DFEE5F09C9001E1F0A343
:100F7900CEF09001E1E0FEA3E0FF4E60999001DF21
:100F8900E0FCA3E0FDD3EF9DEE9C4006A3ECF0A3AB
:100F9900EDF09001DBE0FF6004C2EC8002C2ACEF2F
:100FA90075F003A4244CF582E43400F583E493FB43
:100FB900740193FA740293F9C002C0019001DCE054
:100FC900F9A3E0FAA3E09001E6C9F0A3EAF0A3E9E6
:100FD900F09001E1E0FFA3E09001E9CFF0A3EFF089
:100FE900D001D002120CB59001DBE06004D2EC8094
:100FF90002D2AC9001E1E0FEA3E0FFC39001E0E082
:101009009FF09001DFE09EF09001DDEE8FF0120479
:0410190093020F1F10
:01101D0022B0
:101E1F004301F400000043000100000043000100F3
:101E2F0000004300010000004301FD0000004302D9
:041E3F00000000009F
:0300430002112D7A
:10112D00C0E0C0F0C083C082C0D075D000C000C088
:10113D0001C002C003C004C005C006C00720D9030A
:10114D000211DFE5D9543024F0602624F0604524E7
:10115D00F0605B243070799001FAE0FBA3E0FAA314
:10116D00E0F9EA494B6069E5D9540FFF9001FA8027
:10117D0055900204E004F07006900203E004F09034
:10118D0001F4E0FBA3E0FAA3E0F9EA494B60411258
:10119D000744803C9001F7E0FBA3E0FAA3E0F9EAF5
:1011AD00494B602CE5D9540FFF9001F78018900240
:1011BD0005E0FBA3E0FAA3E0F9EA494B6012E5D99B
:1011CD00540FFF900205A3A3E0F5828A831207480E
:1011DD00C2D930D81C9001FDE0FBA3E0FAA3E0F9E1
:1011ED00EA494B600312074475E300C2DAC2D9C263
:1011FD00D830DA1CC2DA900200E0FBA3E0FAA3E0DB
:10120D00F9EA494B600DE5DA30E208120744800334
:10121D0075D8FFD007D006D005D004D003D002D0AA
:0E122D0001D000D0D0D082D083D0F0D0E032FB
:101B8500E4900203F0A3F075E229F5E375D1811223
:101B950004BF85F0EDF5EC9000021204EA85F0EF44
:101BA500F5EE9000041204EA85F0E5F5E4900006F0
:101BB5001204EA85F0E7F5E6900008120432F5DC38
:101BC500900009120432F5D290000A120432F5D4BD
:101BD50090000B120432F5D690000C120432F5DE9B
:101BE50090000D120432F5EA90000E120432F5EB66
:101BF500E4F5DDF5D3F5D5F5D7F5DF90000F120443
:091C050032F5E175D8FFD2EA22A4
:101928001201100102000008861A0CFE00010102D3
:10193800030109024300020100803209040000018A
:1019480002020004052400100105240100010424FA
:10195800020205240600010705810310000109049D
:101968000100020A00000007050202400000070506
:101978008302400000040309040E03770063006833
:10198800002E0063006E001603550053004200202D
:1019980000530065007200690061006C0016034482
:1019A8000045004100440042004500450046003023
:1019B800003100A120000000000200000001B00179
:0D19C800BB00000080021212120240590301
:0E1E430047019B48E801000000084101A20091
:102618007B017A0179B0EF6028900198E0FCA3E093
:10262800F5828C83E49312045F740129F9E43AFA81
:10263800900199E004F07006900198E004F01F8082
:01264800D5BC
:01264900226E
:101C0E009001AAE0FEA3E0FFC3900204E09FFF90C4
:101C1E000203E09EFEC3EF9419EE9400403890014B
:101C2E00A4E0FFA3E04F702E9001D0E06010900171
:101C3E00A9E0F5D77440F0E49001D0F0800F900148
:101C4E00A7E0F5D77440F09001D07401F053D6FCA4
:101C5E009001A47401F09001ACE0FEA3E0FFC390EC
:101C6E000204E09FFF900203E09EFEC3EF9419EE84
:0E1C7E009400400975D30A53D2FC53E17F2233
:051AF8009001F2EFF087
:101AFD00704E9001CBE0642070409001BAE05460CC
:101B0D00642070369001F3F09001F3E0C3940774F4
:101B1D008094805025E0FF24B0F582E43401F583F4
:101B2D00E0FEEF7C007B01249BF9EC3401FAEE1210
:101B3D00045F9001F3E004F080CEE4F5DD75DCC0C8
:101B4D009001F2E06402702F30DE2CE5D430E70E08
:101B5D009001A6E5DBF09001A8E0601B800C9001E0
:101B6D00A8E5DBF09001A6E0600DE5D454F3440840
:071B7D00F5D4E49001A3F090
:011B8400223E
:051438009001F2EFF04D
:10143D00706A9001BAE0546070579001CBE024FBC4
:10144D00603C1470479001AEE0FEA3E0FFC394082A
:10145D00EE940040067D087F0880009001F3EFF0C8
:10146D001226189001F3E0FFFDC39001AFE09DF04F
:10147D009001AEE09400F08FDD63DC40801EE5E36B
:10148D005480FF9001CDE04FF5E38008E4F5DD8059
:10149D0003E4F5DDE5DC54FC4402F5DC9001F2E0FB
:1014AD00FF7E006401702AF5D3E5D254FC4402F5A9
:1014BD00D2900203E0FDA3E09001ACCDF0A3EDF0DE
:1014CD0043E180900204E004F07006900203E00412
:1014DD00F0EF64034E7043900203E0FFA3E0900130
:1014ED00AACFF0A3EFF075D740E5D630E60FE49024
:1014FD0001A7F09001A9E06440601F800DE4900108
:10150D00A9F09001A7E064406010E4F5D7E5D6544A
:0A151D00FC4402F5D6E49001A4F0AE
:0115270022A1
:1007BD00EF6003020AC19001B7E0FE9001B6E0FDC3
:1007CD00EDFF9001AEEEF0A3EFF09001B1E09001DE
:1007DD00CBF09001B0E0FF9001BAF0E4900198F0F9
:1007ED00A3F09001F2F0EF5460FF7E006003020968
:1007FD00FB9001CBE0B40C0040030209F990081105
:10080D00F82828730208FB02090B0209F90209787E
:10081D000209F90208C70208350209F90208D202D5
:10082D0008E30208EE020A559001B3E024FE601DB4
:10083D0014602D24026003020A4F9001987419F080
:10084D00A37428F09001F27412F0020A55900198E9
:10085D007419F0A3743AF09001F27443F0020A5542
:10086D009001B2E01460191460221460211460200C
:10087D00240470289001987419F0A3747DF08026DB
:10088D009001987419F0A37481F0801A8002800C85
:10089D009001987419F0A3748FF0800A90019874E8
:1008AD0019F0A374A5F0900198E0FCA3E0F5828CFB
:1008BD0083E4939001F2F0020A559001B2E09001A9
:1008CD00CDF0020A5590019AE09001B0F09001F23E
:1008DD007401F0020A559001B2E090019AF00209FC
:1008ED00BAE49001B0F09001F204F0020A55E490E0
:1008FD0001B0F0A3F09001F27402F0020A559001DC
:10090D00BAE0541F640270609001B4E024FE6027C9
:10091D0014603B2482601314602614603A248270A4
:10092D004453D27F53D2F3020A5553D2BFE5D2546A
:10093D00FC4402F5D2807653D47F53D4F3020A558A
:10094D0053D4BFE5D454FC4402F5D4020A5553D612
:10095D007F53D6F3020A5553D6BFE5D654FC440255
:10096D00F5D6020A55020A4F020A4F9001BAE05419
:10097D001F640270759001B5E0706F9001B4E024B2
:10098D00FE60301460482482601814603414604B8B
:10099D002482705453D27FE5D254F3440CF5D20225
:1009AD000A5553D2BFE5D254FC4403F5D243E1803E
:1009BD00020A5553D47FE5D454F3440CF5D4020AFE
:1009CD005553D4BFE5D454FC4403F5D4807A53D6A3
:1009DD007FE5D654F3440CF5D6806D53D6BFE5D6DE
:1009ED0054FC4403F5D68060805880568054EF64E3
:1009FD00204E704E9001CBE024E0604C24FE60361A
:100A0D0004703DE4FFEFC3940774809480501FEF92
:100A1D007C007B01249BF9EC3401FA120419FE745D
:100A2D00B02FF582E43401F583EEF00F80D79001FD
:100A3D00F27407F080129001B2E09001A2F08008EC
:100A4D0080009001F274FFF09001F2E0FFF4700A63
:100A5D009001CB74FFF075DCCF227E00D39001AFF7
:100A6D00E09F9001AEE09E4005EEF0A3EFF0900107
:100A7D00AEE0FEA3E0FFD39408EE940040067D089F
:100A8D007F0880009001F2EFF0900198E07002A3D2
:100A9D00E060089001F2E0FF1226189001F2E0FFED
:100AAD00FDC39001AFE09DF09001AEE09400F08F9A
:040ABD00DD75DCC047
:010AC1002212
:1024740053E17FE49001CCF09001A6F09001CEF0FE
:102484009001A8F09001CFF09001A5F09001D0F058
:102494009001A7F09001A9F075DC0275D21275D4F1
:1024A4001275D612A3F0A3F0A3F0A3F0900203F0E8
:1024B400A3F090019AF09001A4F09001A304F022FB
:102702009001A4E07021E5D630E6079001A9E0FF30
:1027120080059001A7E0FFEF6440700B75D740532E
:08272200D6FC9001A404F02292
:102798009001A3E0701CE5D430E7079001A8E0FFA2
:1027A80080059001A6E0FFEF700853D4F39001A3D1
:0327B80004F02208
:10219F009001F474FFF0A3741CF0A3740EF090017F
:1021AF00FA74FFF0A3741AF0A374F8F09001F774A7
:1021BF00FFF0A37414F0A37438F090020574FFF0CD
:1021CF00A37407F0A374BDF09001FD74FFF0A37426
:1021DF0024F0A37474F0900200E4F0A3F0A3F07B5A
:1021EF00FF7A1979C5121B85E4FF1226ACE4900122
:0321FF009AF02231
:1026AC00E4FEEEC3940A748094805015EE9019BB2E
:1026BC0093FD74BB2EF582E43401F583EDF00E80AE
:0C26CC00E19001C3EFF075D30A53D2FC7B
:0126D80022DF
:10272A009001CFE0FF9001A8E0C39FFFE49400FE70
:10273A009001CEE0FD9001A6E0C39DFDE49400CD9A
:06274A002FFFED3EFE2210
:1027BB009001CCE0600D9001CFE02440F582E43431
:1027CB0000800B9001CEE02400F582E43400F58309
:0327DB00E0FF22FA
:101F3C0012272AEF4E60F99001CCE0602B9001CF74
:101F4C00E02440F582E43400F583E0FC9001CFE01E
:101F5C0004F09001A8E0FF9001CFE06F7039F09091
:101F6C0001A8F09001CC802B9001CEE02400F582EA
:101F7C00E43400F583E0FC9001CEE004F09001A67F
:101F8C00E0FF9001CEE0B5070EE4F09001A6F090D2
:091F9C0001CC04F0122798AF04F7
:011FA5002219
:08123B009001D8ECF0A3EDF0E6
:101243009001D8E07002A3E070030213409001CC38
:10125300E0606F9001CFE0FF9001A8E0C39FFDE441
:101263009400FC4D60DA9001D8E0FEA3E0FFC39D3B
:10127300EE9C5004AC06AD07C3EF9DFFEE9C9001BE
:10128300D8F0A3EFF09001CFE02440F582E43400DE
:10129300F583E012045F740129F9E43AFA9001CF6F
:1012A300E004F0ED1D70011C144C70D99001A8E00E
:1012B300FF9001CFE06F7088F09001A8F09001CC0F
:1012C30080749001CEE0FF9001A6E0C39FFDE494FB
:1012D30000FC4D70030212439001D8E0FEA3E0FF2F
:1012E300C39DEE9C5004AC06AD07C3EF9DFFEE9C7F
:1012F3009001D8F0A3EFF09001CEE02400F582E452
:101303003400F583E012045F740129F9E43AFA909A
:1013130001CEE004F0ED1D70011C144C70D9900156
:10132300A6E0FF9001CEE06F6003021243F090014C
:0D133300A6F09001CC04F01227980212439E
:01134000228A
:102800009001A9E0FFC374409FFFE49400FE900193
:10281000A7E0FDC374409DCDE49400CD2FFFED3EB5
:02282000FE2296
:102202009001A57401F09001D0E060269001A9E050
:10221200FE64407002804574C02EF582E43400F5FD
:1022220083EFF00E9001A9EEF06440702E9001D081
:1022320080259001A7E0FE64407002801F74802E0A
:10224200F582E43400F583EFF00E9001A7EEF0641E
:102252004070089001D004F0122702E49001A5F02A
:012262002259
:08101E009001D8ECF0A3EDF005
:10102600E49001A504F09001D8E07002A3E07003FB
:101036000211279001D0E0606E9001A9E09001DADC
:10104600F0E0FFC374409FFDE49400FC4D60D79030
:1010560001D8E0FEA3E0FFC39DEE9C5004AC06ADB4
:1010660007C3EF9DFFEE9C9001D8F0A3EFF01204AA
:1010760019FF9001DAE024C0F582E43400F583EF2D
:10108600F0740129F9E43AFA9001DAE004F0ED1D72
:1010960070011C144C70D7E0FF9001A9F0EF64407A
:1010A60070849001D080739001A7E09001DAF0E09F
:1010B600FFC374409FFDE49400FC4D700302102CA6
:1010C6009001D8E0FEA3E0FFC39DEE9C5004AC0661
:1010D600AD07C3EF9DFFEE9C9001D8F0A3EFF01291
:1010E6000419FF9001DAE02480F582E43400F583E8
:1010F600EFF0740129F9E43AFA9001DAE004F0ED30
:101106001D70011C144C70D7E0FF9001A7F0EF642E
:1011160040600302102C9001D004F0122702021046
:061126002CE49001A5F08D
:01112C0022A0
:101E510041022F0142023400004402300001E848EF
:041E610041022E020A
:101ED1009001D8EFF090022FF01228F2E49001DD8A
:101EE100F0FFFEFDFC121D827BF07D01E4FF122359
:101EF1007A9001D8E0700E90022EE0FFE4FD12000E
:101F01001E7BB0802E9001D8E06401700E90022EED
:101F1100E0FF7D0812001E7BB08018900230E0FCCB
:101F2100A3E0FDA3E0FEA3E0FFE49001DDF0121DBC
:0B1F3100827B807D017F0112237A2259
:1017B600900234EEF0A3EFF05403FF7B027D01129A
:1017C600237A900234E0FEA3E07802CEC313CE1350
:1017D600D8F9FF900234EEF0A3EFF05403FF7B013B
:1017E6007D0312237A900234E0FEA3E07802CEC392
:1017F60013CE13D8F9FF900234EEF0A3EFF05403A2
:10180600FF7B027D0312237A900234E0FEA3E07888
:1018160002CEC313CE13D8F9FF900234EEF0A3EF35
:10182600F05403FF7B047D0312237A900234E0FE1A
:10183600A3E07802CEC313CE13D8F9FF900234EE9C
:10184600F0A3EFF05403FF7B087D0312237A900286
:1018560034E0FEA3E07802CEC313CE13D8F9FF908E
:101866000234EEF0A3EFF05403FF7B107D03022356
:011876007AF7
:1020D8009001D8EFF05401FB7D027F011225DF90BB
:1020E80001D8E0C313F05401FB7D017F031225DF03
:1020F8009001D8E0C313F05401FB7D027F03122541
:10210800DF9001D8E0C313F05401FB7D047F031274
:1021180025DF9001D8E0C313F05401FB7D087F034D
:102128001225DF9001D8E0C313F05401FB7D107F26
:04213800030225DF9A
:101C8C007D107F031227DE9001D8EFF0E025E0F005
:101C9C00E0FEC0067D087F031227DED0E04F9001E6
:101CAC00D8F0E025E0F0E0FEC0067D047F031227AB
:101CBC00DED0E04F9001D8F0E025E0F0E0FEC00669
:101CCC007D027F031227DED0E04F9001D8F0E02593
:101CDC00E0F0E0FEC0067D017F031227DED0E04F6E
:101CEC009001D8F0E025E0F0E0FEC0067D027F0117
:0B1CFC001227DED0E04FFF9001D8F06F
:011D070022B9
:102841009001D8EFF0E025E05402FD7F0112287DD0
:0E2851009001D8E0C313541FFD7F0302287DC1
:10285F009001D8EFF0E025E05402FD7F01122750E0
:0E286F009001D8E0C313541FFD7F03022750D1
:10264A009001D8EFF0A3ECF0A3EDF07D107F01121A
:10265A0027509001D8E0FF1200039001D9E0FF1241
:10266A0000039001D9A3E0FF1200037D107F01024D
:02267A00287DB9
:051FA6009001D8EFF0EE
:101FAB007D107F011227509001D8E0FF120003E44F
:101FBB00FF120003E4FF1200037D107F0112287D46
:101FCB007D107F011227509001D8E0FF120003E42F
:101FDB00FF1200039001D9E4F0A3EFF0E0F8E4F076
:101FEB00E89001D9F0E4FF1200039001D9E0F0A3CF
:101FFB00E04FF07D107F0112287D9001D9E0FEA308
:02200B00E0FFF4
:01200D0022B0
:102822009001D8EFF0ECA3F0A3EDF07B017A0179EF
:0F283200D89001DFE4F0A37403F07F01020E9948
:10006E007F051228E27BB07D017F0112237A7B404F
:10007E007D01E4FF12237A7B047D037F0112237A34
:10008E007B007A007900E4FF121A677D807C3EE4E3
:10009E00FF12242290022EE0FF7D0812001E900215
:1000AE0030E0FCA3E0FDA3E0FEA3E0FFE49001DD61
:1000BE00F0121D82E49001DDF0FFFEFDFC121D82A8
:1000CE00D2AFC2AE7D047F031227507DFA7C00E4CE
:1000DE00FF12267C7D047F0312287D7DFA7C00E4CE
:1000EE00FF12267C12219F7F031226AC9001A2E004
:1000FE009001D5F090019AE060FA7DFA7C00E4FF61
:10010E0012267C12272AC3EF9404EE9400500302A9
:10011E00027D1227BBEF20E70302027D7B017A01ED
:10012E0079D17D047C0012123B9001D3E0FF900147
:10013E00D6E4F0A3EFF0E07F00FE9001D6F0A3EF3F
:10014E00F09001D4E0F9FDEDFF9001D6EEF0A3EFB3
:10015E00F09001D1E0547F7003020259A3E024080D
:10016E00B40800400302027D90018475F003A4C51B
:10017E008325F0C5837302019C0201A40201AF0224
:10018E0001BA0201C80201D302021502024FAF01E9
:10019E0012285F02027D9001D4E0FF122841020274
:1001AE007D9001D4E0FF1220D802027D9001D6E0AE
:1001BE00FEA3E0FF1217B602027D9001D4E090027A
:1001CE002EF002027D900230A3A3E0FEA3E0FFE436
:1001DE00FDFC9002301206AF900230E0F8A3E0F979
:1001EE00A3E0FAA3E0FBC0009001D6E0FEA3E0FF7F
:1001FE00E4FCFD781012069CD000EB4FFFEA4EFE99
:10020E00E94DFDE84C8031900230E0FCA3E0FDE4C6
:10021E00FFFEEC9002301206AF900230E0F8A3E041
:10022E00F9A3E0FAA3E0FB9001D6E0FEA3E0FFEB1A
:10023E004FFFEA4EFEE9FDE8FC9002301206AF8059
:10024E002E9001D4E0FF121ED1802490022FE0D315
:10025E009401748094809001D2E04480FF9001D686
:10026E00E0FCA3E0FD4005122822800312264A126C
:10027E00272AC3EF9402EE940050030203C0122704
:10028E00BBEF30E7030203C07B017A0179D17D0217
:10029E007C0012123B9001D1E0547F700302037672
:1002AE00A3E02408B40800400302036F9002C8754F
:1002BE00F003A4C58325F0C583730202E00202E0B9
:1002CE000202EA0202F402030602031002034202D1
:1002DE000362E49001D3F0A3F002036FE49001D324
:1002EE00F0121C8C8047900234E0FCA3E0FDEC90F1
:1002FE0001D3F0A3EDF08069E49001D3F090022ECB
:10030E00805A900230E0FCA3E0FDA3E0FEA3E0FFE4
:10031E0078181206899001D3EFF0900230E0FCA31A
:10032E00E0FDA3E0FEA3E0FF78101206899001D451
:10033E00EFF0802D900230E0FCA3E0FDA3E0FEA3E1
:10034E00E0FF78081206899001D3EFF0900230A3F7
:10035E00A3A38008E49001D3F090022FE09001D483
:10036E00F09001D274FF803C90022FE0D394017480
:10037E008094809001D2E0547F4008FD7F011221CD
:10038E003C802FFF121FA69001D6EEF0A3EFF09047
:10039E0001D27480F09001D6E0FCA3E0FDEC900158
:1003AE00D3F0A3EDF07B017A0179D27D037C0012AC
:1003BE00101E7F01122775C3EF9402EE94004027A2
:1003CE007B017A0179D39001DCE4F0A37402F07F13
:1003DE00011216159001D27440F07B017A0179D288
:1003EE007D037C0012101E9001A2E0FF9001D5E06B
:1003FE006F70030201119001A2E05403FF1226ACAC
:0B040E009001A2E09001D5F002011166
:1019E70002006EE493A3F8E493A34003F68001F2A8
:1019F70008DFF48029E493A3F85407240CC8C33301
:101A0700C4540F4420C8834004F456800146F6DFCF
:101A1700E4800B0102040810204080901DF6E47E4C
:101A2700019360BCA3FF543F30E509541FFEE493C4
:101A3700A360010ECF54C025E060A840B8E493A38B
:101A4700FAE493A3F8E493A3C8C582C8CAC583CAB6
:101A5700F0A3C8C582C8CAC583CADFE9DEE780BE6E
:011E6500007C
:10041900BB010689828A83E0225002E722BBFE02E1
:09042900E32289828A83E4932214
:10043200BB010CE58229F582E5833AF583E022507F
:1004420006E92582F8E622BBFE06E92582F8E222C9
:0D045200E58229F582E5833AF583E49322E3
:10045F00BB010689828A83F0225002F722BBFE017C
:02046F00F32276
:10047100F8BB010DE58229F582E5833AF583E8F0C1
:10048100225006E92582C8F622BBFE05E92582C86D
:02049100F22255
:10049300C5F0F8A3E028F0C5F0F8E58215827002F4
:0604A3001583E038F02291
:1004A900A3F8E0C5F025F0F0E58215827002158306
:0604B900E0C838F0E82263
:1004BF00BB010A89828A83E0F5F0A3E02250068708
:1004CF00F009E71922BBFE07E3F5F009E3192289CA
:0B04DF00828A83E493F5F074019322FD
:1004EA00BB0110E58229F582E5833AF583E0F5F050
:1004FA00A3E0225009E92582F886F008E622BBFE2D
:10050A000AE92582F8E2F5F008E222E5832AF58372
:08051A00E993F5F0A3E9932237
:10052200BB010DC58229C582C5833AC583020493E6
:100532005011C58229F808E5F026F618F5F0E58293
:1005420036F622BBFE11C58229F808E225F0F5F045
:10055200F218E23582F222F8E58229F582E5832A51
:0D056200F58374019325F0F5F0E493382241
:10056F00BB010A89828A83F0E5F0A3F0225006F7D7
:0F057F0009A7F01922BBFE06F3E5F009F31922D4
:10058E00F8BB0111E58229F582E5833AF583E8F09F
:10059E00E5F0A3F0225009E92582C8F608A6F0225C
:0D05AE00BBFE09E92582C8F2E5F008F22243
:1005BB0075F008758200EF2FFFEE33FECD33CDCCF7
:1005CB0033CCC58233C5829BED9AEC99E58298407A
:1005DB000CF582EE9BFEED9AFDEC99FC0FD5F0D657
:1005EB00E4CEFBE4CDFAE4CCF9A88222B800C1B981
:1005FB000059BA002DEC8BF084CFCECDFCE5F0CBBF
:10060B00F97818EF2FFFEE33FEED33FDEC33FCEBF7
:10061B0033FB10D703994004EB99FB0FD8E5E4F9B2
:10062B00FA227818EF2FFFEE33FEED33FDEC33FC9F
:10063B00C933C910D7059BE99A4007EC9BFCE99A93
:10064B00F90FD8E0E4C9FAE4CCFB2275F010EF2FD8
:10065B00FFEE33FEED33FDCC33CCC833C810D707D8
:10066B009BEC9AE899400AED9BFDEC9AFCE899F813
:0E067B000FD5F0DAE4CDFBE4CCFAE4C8F922A6
:10068900E8600FECC313FCED13FDEE13FEEF13FF4F
:03069900D8F12273
:10069C00E8600FEFC333FFEE33FEED33FDEC33FCBC
:0306AC00D8F12260
:0C06AF00ECF0A3EDF0A3EEF0A3EFF022BE
:1006BB00BB010DE58229F582E5833AF58302078DAF
:1006CB005007E92582F802077BBBFE07E92582F874
:1006DB0002079FE58229F582E5833AF5830207B18C
:1006EB00BB0120E58229F582E5833AF583D0F0D072
:1006FB00E0F8D0E0F9D0E0FAD0E0FBE8C0E0C0F0E1
:10070B000207965018E92582F8D083D082D0E0F901
:10071B00D0E0FAD0E0FBC082C083020784BBFE1896
:10072B00E92582F8D083D082D0E0F9D0E0FAD0E08E
:09073B00FBC082C0830207A82262
:060744008A838982E47340
:10074A00E5092582F582E5083583F583B508048530
:10075A0082092210AF06858209F50822858209F5E9
:04076A0008D2AF22E0
:0D076E00E5092582F582E5083583F5832233
:09077B00E6FB08E6FA08E6F922A3
:09078400EBF608EAF608E9F6229A
:09078D00E0FBA3E0FAA3E0F9226D
:09079600EBF0A3EAF0A3E9F02264
:09079F00E2FB08E2FA08E2F9228B
:0907A800EBF208EAF208E9F22282
:0C07B100E493FB740193FA740293F922A4
:00000001FF
